{
  "contractName": "Trans",
  "abi": [
    {
      "constant": false,
      "inputs": [
        {
          "name": "from",
          "type": "bytes32"
        },
        {
          "name": "to",
          "type": "bytes32"
        },
        {
          "name": "prev_item_transaction",
          "type": "bytes32"
        },
        {
          "name": "gps",
          "type": "bytes32"
        }
      ],
      "name": "makeTransaction",
      "outputs": [],
      "payable": false,
      "stateMutability": "nonpayable",
      "type": "function"
    },
    {
      "constant": true,
      "inputs": [],
      "name": "owner",
      "outputs": [
        {
          "name": "",
          "type": "address"
        }
      ],
      "payable": false,
      "stateMutability": "view",
      "type": "function"
    },
    {
      "inputs": [],
      "payable": false,
      "stateMutability": "nonpayable",
      "type": "constructor"
    },
    {
      "anonymous": false,
      "inputs": [
        {
          "indexed": false,
          "name": "from",
          "type": "bytes32"
        },
        {
          "indexed": false,
          "name": "to",
          "type": "bytes32"
        },
        {
          "indexed": false,
          "name": "prev_item_transaction",
          "type": "bytes32"
        },
        {
          "indexed": false,
          "name": "gps",
          "type": "bytes32"
        }
      ],
      "name": "TransactionSuccessful",
      "type": "event"
    }
  ],
  "bytecode": "0x6060604052341561000f57600080fd5b336000806101000a81548173ffffffffffffffffffffffffffffffffffffffff021916908373ffffffffffffffffffffffffffffffffffffffff1602179055506101ba8061005e6000396000f30060606040526004361061004c576000357c0100000000000000000000000000000000000000000000000000000000900463ffffffff1680630dff3fa5146100515780638da5cb5b1461009f575b600080fd5b341561005c57600080fd5b61009d6004808035600019169060200190919080356000191690602001909190803560001916906020019091908035600019169060200190919050506100f4565b005b34156100aa57600080fd5b6100b2610169565b604051808273ffffffffffffffffffffffffffffffffffffffff1673ffffffffffffffffffffffffffffffffffffffff16815260200191505060405180910390f35b7f88421a6d470af9d677b71449507aaf4320d601819951ce732edb64302933bf008484848460405180856000191660001916815260200184600019166000191681526020018360001916600019168152602001826000191660001916815260200194505050505060405180910390a150505050565b6000809054906101000a900473ffffffffffffffffffffffffffffffffffffffff16815600a165627a7a72305820a09098d297adb10c98819c42d786657a1a4cf193fe3d8c06ff34d9e3449e98410029",
  "source": "contract Trans {\n    address public owner;\n\n    function Trans() {\n        owner = msg.sender;\n    }\n\n    event TransactionSuccessful(bytes32 from, bytes32 to, bytes32 prev_item_transaction, bytes32 gps);\n\n    function makeTransaction(bytes32 from, bytes32 to, bytes32 prev_item_transaction, bytes32 gps) public {\n        TransactionSuccessful(from, to, prev_item_transaction, gps);\n    }\n}",
  "sourcePath": "/run/media/surya/F/codes/project_git/subconn/blockChainAPI/smart contract/contracts/Trans.sol",
  "compiler": {
    "name": "solc",
    "version": "0.4.18+commit.9cf6e910.Emscripten.clang"
  },
  "schemaVersion": "1.0.1",
  "updatedAt": "2018-01-04T17:27:21.807Z"
}